{
  "transactions": [
    {
      "hash": "0x5699bf36de5c62819174ab8a143830c6406ffbbded2c297cc9085e268588768d",
      "transactionType": "CALL",
      "contractName": null,
      "contractAddress": "0xd8a67d3223d01467545a9109e360fc44c7f09cf6",
      "function": "transfer(address,uint256)",
      "arguments": [
        "0xf2515945582d9fE2ADDDEcD715eC6605C0af240c",
        "100000"
      ],
      "transaction": {
        "from": "0x4c847c87b8c6fcf2195fa2387e686b1042cf63d1",
        "to": "0xd8a67d3223d01467545a9109e360fc44c7f09cf6",
        "gas": "0x11652",
        "value": "0x0",
        "input": "0xa9059cbb000000000000000000000000f2515945582d9fe2adddecd715ec6605c0af240c00000000000000000000000000000000000000000000000000000000000186a0",
        "nonce": "0x4",
        "chainId": "0xaa36a7"
      },
      "additionalContracts": [],
      "isFixedGasLimit": false
    }
  ],
  "receipts": [
    {
      "status": "0x1",
      "cumulativeGasUsed": "0x53c0e6",
      "logs": [
        {
          "address": "0xd8a67d3223d01467545a9109e360fc44c7f09cf6",
          "topics": [
            "0xddf252ad1be2c89b69c2b068fc378daa952ba7f163c4a11628f55a4df523b3ef",
            "0x0000000000000000000000004c847c87b8c6fcf2195fa2387e686b1042cf63d1",
            "0x000000000000000000000000f2515945582d9fe2adddecd715ec6605c0af240c"
          ],
          "data": "0x00000000000000000000000000000000000000000000000000000000000186a0",
          "blockHash": "0xb9ae1fc2fd155819172c3bee3fc73c786b02d3b2f9c6cafc89b64e571ccae1dd",
          "blockNumber": "0x5f285a",
          "transactionHash": "0x5699bf36de5c62819174ab8a143830c6406ffbbded2c297cc9085e268588768d",
          "transactionIndex": "0x36",
          "logIndex": "0x49",
          "removed": false
        }
      ],
      "logsBloom": "0x00000000000000000000000000000000000000000000000000000000000000000000000000000000000000000000000000000000000000000000000000000000000000000000000000000008000000000000000000000000000000000000000000000000000000000000000000000000000000000000000000000010000000000000000000000000000000000000000000000000000000000200000000000000000000040000000000000008000010000000000000000000000000000000000000000002000000000000000000000000000000000100000000000000000000824000001000000000000000000000000000000000000000000000000000000000",
      "type": "0x2",
      "transactionHash": "0x5699bf36de5c62819174ab8a143830c6406ffbbded2c297cc9085e268588768d",
      "transactionIndex": "0x36",
      "blockHash": "0xb9ae1fc2fd155819172c3bee3fc73c786b02d3b2f9c6cafc89b64e571ccae1dd",
      "blockNumber": "0x5f285a",
      "gasUsed": "0xc980",
      "effectiveGasPrice": "0x33e43bff7",
      "from": "0x4c847c87b8c6fcf2195fa2387e686b1042cf63d1",
      "to": "0xd8a67d3223d01467545a9109e360fc44c7f09cf6",
      "contractAddress": null
    }
  ],
  "libraries": [],
  "pending": [],
  "returns": {},
  "timestamp": 1719985852,
  "chain": 11155111,
  "commit": "d1f7250"
}